:0A093000084F1409030D12330006EE
:1007B800D2965307FEE4FEEF30E004D2958002C2E1
:1007C80095D294C294EFC313FF0EBE08EAE4FEED7F
:1007D80030E004D2958002C295D294C294EDC3133E
:0707E800FD0EBE08EAC296F7
:0107EF0022E7
:10077D00D296430701E4FDEF30E004D2958002C22A
:10078D0095D294C294EFC313FF0DBD08EAE4FDEEBC
:10079D00C313FE309505430680800353067FD29424
:0A07AD00C2940DBD08E9C296AF0624
:0107B700221F
:1005E400E4FF744F2FF8E6FE75F00A84FDEE75F013
:1005F4000A8474572FF8A6F0EDC454F0FE74572FF4
:10060400F8EE26F60FBF08DAE4FD7F8E1207B87DF8
:10061400807F801207B8AD587F8C1207B8AD597F20
:10062400881207B8AD5A7F861207B8AD5B7F841273
:1006340007B8AD5C7F821207B8AD5D7F801207B842
:0E064400AD5E7F8A1207B87D807F8E0207B8F8
:100652007F8C12077D8F587F8812077D8F597F8686
:1006620012077D8F5A7F8412077D8F5B7F8212076C
:100672007D8F5C7F8012077DEF547FF55D7F8A124C
:10068200077D8F5EE4FF74572FF8E6FEC4540FFD1A
:10069200EE540FFE744F2FF8A606ED75F00AA4FE75
:0B06A200744F2FF8EE26F60FBF08DBA8
:0106AD00222A
:0B093E00C296C294E4FD7F800207B85F
:10031F0005020101030102030203030202030202A9
:10032F000302010301070203070202050304050389
:10033F000303030405030203030103030103030281
:10034F000202020303020403020303040303030371
:10035F000303020303020303010303010302060263
:10036F000201030206020202030105030305020351
:10037F00050203060203010303010303060203033D
:10038F00030301030201030300000005010305013C
:10039F000306010205010201020207010205010322
:1003AF000501030601020501020202020102020514
:1003BF000103050103050202030202010202070104
:1003CF0002060102040203040204030202010202F4
:1003DF0002020201020206010206010303020302E6
:1003EF0002020102020701020701030701030202D1
:1003FF0002010203070103060102060103010303C1
:10040F0007020301030307020301030306010206A8
:10041F00010301030307020301030307020301039F
:10042F00030102030102030102030102030302039A
:10043F000302030302030302030202030202030285
:10044F00020302020305020305020305020305026C
:10045F000306020306020306020306020306020353
:10046F000602030602030602030602030602030640
:10047F00020306020302020301020307010305013F
:10048F000306010206010303020302020201020234
:10049F00070102070103070103020202010203071A
:1004AF00010306010206010301030307020301030F
:1004BF0003070203010303060102060103010303FD
:1004CF00070203010303070203010303000000F205
:1004DF00F3F5F5F6F7F8F9F9FAFAFBFBFCFCFCFD7E
:1004EF00FDFDFDFEFEFEFEFEFEFEFF3DBD14B1D086
:1004FF00D1B51EDE8AD868E85A8FEE456CB4F42D5C
:10050F004777A2B6DAFA16F23DF3BDF514F5B1F658
:10051F00D0F7D1F8B5F91EF91EF9DEFA8AFAD8FB31
:10052F0068FBE8FC5AFC8FFC8FFCEFFD45FD6CFD72
:10053F00B4FDF4FE2DFE473F065B4F666D7D077FD2
:09054F006FFEFDFBF7EFDFBF7F3B
:03093A0001210098
:1000260012000312000E12093E300126E4FFEF25EE
:10003600E02424F8E675F00AA4FEEF25E02425F86E
:10004600E62EFE744F2FF8A6060FBF08E11205E450
:10005600C201E553700DE5547009E55570051208A7
:1000660026801FE5547009E555700512085B80125D
:10007600E553B4150DE554B42608E555B43103121D
:1000860007F01206AE8F09E50A600302014BE50987
:1000960014B4080040030202459000AD75F003A4B5
:1000A600C58325F0C583730200C50200D20200DFB6
:1000B6000200EE0200FD02011602012F02013F05B9
:1000C60053E553B41803E4F5530202231553E553DD
:1000D600B4FF037553170202230554E554B43C05D7
:1000E600E4F55405530202231554E554B4FF05758F
:1000F600543B15530202230555E555B43C0FE4F570
:10010600550554E554B43C05E4F554055302022361
:100116001555E555B4FF0F75553B1554E554B4FF19
:100126000575543B1553020223050AE50A6404606B
:1001360003020245F50A020245753815753926751A
:100146003A31020245E50A640160030201FEE5094F
:1001560014B40700400302024590016D75F003A434
:10016600C58325F0C5837302018202018F02019CBB
:100176000201AA0201B40201D60201F20550E550BD
:10018600B46303E4F5500202231550E550B4FF03AF
:100196007550630202230551E551B40D05755101F1
:1001A60005508079D5510575510C1550806F055253
:1001B6000556E552B4200F7552010551E551B40DAF
:1001C600057551010550E556B40803755601804D75
:1001D60015521556E552700B75521FD551057551BE
:1001E6000C1550E55670037556078031050AE50A69
:1001F6006404704BF50A8047E50A6402702DE50930
:1002060024FA601314601B240270340556E556B4B4
:1002160008037556018006D556037556071205E480
:10022600801D050AE50AB404168011E50AB4030F19
:10023600E509B4070A050AE50AB40403E4F50A2049
:10024600000302002FC200120652E50A146046148B
:1002560070030202D914700302030B240360030225
:10026600002FE55375F00A8490054693F545E5534E
:1002760075F00A84E5F093F546754740E55475F048
:100286000A8493F548E55475F00A84E5F093F54938
:10029600754A408059E55075F00A8490054693F5F5
:1002A60045E55075F00A84E5F093F546754740E557
:1002B6005175F00A8493F548E55175F00A84E5F026
:1002C60093F549754A40E55275F00A8493F54BE576
:1002D600528026754540E55675F00A84E5F090058E
:1002E6004693F546754740E4F548F549F54AE55520
:1002F60075F00A8493F54BE55575F00A84E5F0939D
:10030600F54C02002FE4F545F546F547F548F54965
:09031600F54AF54BF54C02002FED
:03001E00DFFE22E0
:1008BB00AE07AF061EEF600C7FF512001E7FF51220
:0508CB00001E80EE227A
:10089000E4F580D2A2C2A2E5212F90055093F58005
:1008A000D2A3C2A374452521F8E6F580D2A2C2A244
:0A08B0000521E521B50503E4F5215B
:0108BA00221B
:0208D000AD0772
:1008D200E4FCECC39D50087F961208BB0C80F3C267
:0108E2008C89
:0108E30022F2
:0208E400AD075E
:1008E600E4FCECC39D50087F501208BB0C80F3C299
:0108F6008C75
:0108F70022DE
:0208F800AD074A
:1008FA00E4FCECC39D50087F461208BB0C80F3C28F
:01090A008C60
:01090B0022C9
:07092000EB93F5440B0B0BF8
:09092700854D8C854E8AD28C228C
:10082600E4FBEBC39449502CEB90039B9375F007C4
:10083600A4FFEB90039A932F14FA9004DE93F54DE0
:10084600EA9004FA93F54E90039C120920AF4412E5
:0408560008D080CE78
:01085A00227B
:10085B00E4FBEBC39479502CEB9003209375F007DA
:10086B00A4FFEB90031F932F14FA9004DE93F54D26
:10087B00EA9004FA93F54E900321120920AF44122B
:04088B0008E480CE2F
:01088F002246
:1007F000E4FBEBC394F7502DEB9003E69375F00701
:10080000A4FFEB9003E5932F14FA9004DE93F54DCB
:10081000EA9004FA93F54EEB9003E7120921AF44F6
:050820001208F880CD74
:0108250022B0
:08000300438901D2AFD2A9220A
:0C000E00438910D2AFD2ABD28ED2BB22FD
:10090C00759850438920758DFDD28EC298C299D2AC
:04091C00AFD2AC2288
:03000B000209499E
:09094900854D8C854E8AB2A43262
:03001B000206FDDD
:1006FD00C0E0C083C082C0D075D000C000C005C0AE
:01070D0007E4
:10070E00758DF8758B307D08E4FF1208900523E592
:10071E002370020522643245227006F522F523D29B
:01072E0000CA
:0F072F00D007D005D000D0D0D082D083D0E03218
:0300230002073E93
:07073E00C0E0C0D075D0102F
:1007450030982BC298AF99BF430B75380C75392279
:10075500753A388019EF540FFE74242508F8A6164B
:100765000508E508B41005750800D2018F99309980
:0307750002C29924
:05077800D0D0D0E032FA
:1006AE00E5B0F460477F321208BBE5B0F4603DAFB1
:1006BE00B0EF2481603024C0602924E0602224F051
:1006CE00601B24F8601424FC600D24FE6006147078
:1006DE00187F01227F02227F03227F04227F0522C0
:0E06EE007F06227F07227F08227F00227F00E6
:0106FC0022DB
:030000000205589E
:0C055800787FE4F6D8FD75815E02059FF7
:10056400020026E493A3F8E493A34003F68001F287
:1005740008DFF48029E493A3F85407240CC8C33398
:10058400C4540F4420C8834004F456800146F6DF67
:10059400E4800B0102040810204080900930E47EBE
:1005A400019360BCA3FF543F30E509541FFEE4935C
:1005B400A360010ECF54C025E060A840B8E493A323
:1005C400FAE493A3F8E493A3C8C582C8CAC583CA4E
:1005D400F0A3C8C582C8CAC583CADFE9DEE780BE06
:01093D0000B9
:00000001FF
